:100000000C945D000C9485000C9485000C94850084
:100010000C9485000C9485000C9485000C9485004C
:100020000C9485000C9485000C9485000C9485003C
:100030000C9485000C9485000C9485000C9485002C
:100040000C94FE030C9485000C946E040C944804EC
:100050000C9485000C9485000C9485000C9485000C
:100060000C9485000C94850000000008000201003B
:100070000003040700000000000000000000000072
:10008000250028002B0000000000240027002A0083
:10009000040404040404040402020202020203032E
:1000A0000303030301020408102040800102040836
:1000B0001020010204081020A00411241FBECFEF5D
:1000C000D8E0DEBFCDBF11E0A0E0B1E0E8EEFEE099
:1000D00002C005900D92AC34B107D9F722E0ACE430
:1000E000B1E001C01D92A031B207E1F710E0CDE50B
:1000F000D0E004C02197FE010E946707CC35D107EC
:10010000C9F70E94EA040C9472070C94000090E076
:10011000FC01EC55FF4F2491FC01E057FF4F849107
:10012000882399F090E0880F991FFC01EA57FF4F50
:10013000A591B491FC01E458FF4F859194918FB73C
:10014000F894EC91E22BEC938FBF089590E0FC01C2
:10015000E859FF4F2491FC01EC55FF4F3491FC010D
:10016000E057FF4FE491EE2309F43CC0222339F11C
:10017000233091F038F42130A9F0223001F584B514
:100180008F7D12C0273091F02830A1F02430B9F4CF
:10019000809180008F7D03C0809180008F77809355
:1001A00080000DC084B58F7784BD09C08091B000F8
:1001B0008F7703C08091B0008F7D8093B000F0E016
:1001C000EE0FFF1FE458FF4FA591B4919FB7F8942D
:1001D000611104C08C913095382302C0EC913E2B04
:1001E0003C939FBF08953FB7F89480915701909139
:1001F0005801A0915901B0915A0126B5A89B05C09C
:100200002F3F19F00196A11DB11D3FBFBA2FA92F95
:10021000982F8827820F911DA11DB11DBC01CD0112
:1002200042E0660F771F881F991F4A95D1F70895FE
:100230008F929F92AF92BF92CF92DF92EF92FF92F6
:100240006B017C010E94F3004B015C01C114D104DD
:10025000E104F104F1F00E94F300DC01CB01881904
:100260009909AA09BB09883E9340A105B10570F31D
:1002700021E0C21AD108E108F10888EE880E83E077
:10028000981EA11CB11CC114D104E104F10419F79A
:10029000DDCFFF90EF90DF90CF90BF90AF909F9019
:1002A0008F900895CF92DF92EF92FF920F931F935A
:1002B000CF93DF936C017A018B01C0E0D0E0CE15C3
:1002C000DF0581F0D8016D918D01D601ED91FC9192
:1002D0000190F081E02DC6010995892B11F021963E
:1002E000EECF7E01C701DF91CF911F910F91FF905B
:1002F000EF90DF90CF900895FC01538D448D252F12
:1003000030E0842F90E0821B930B541710F0CF96AF
:10031000089501970895FC01918D828D981761F0E1
:10032000828DDF01A80FB11D5D968C91928D9F5F2C
:100330009F73928F90E008958FEF9FEF0895FC01D7
:10034000918D828D981731F0828DE80FF11D858D8A
:1003500090E008958FEF9FEF0895FC01918D228D1D
:10036000892F90E0805C9F4F821B91098F739927A2
:1003700008958BE591E00E94AD0121E0892B09F4FD
:1003800020E0822F0895FC01848DDF01A80FB11DAC
:10039000A35ABF4F2C91848D90E001968F739927BB
:1003A000848FA689B7892C93A089B1898C91837099
:1003B00080648C93938D848D981306C00288F38992
:1003C000E02D80818F7D80830895EF92FF920F93BF
:1003D0001F93CF93DF93EC0181E0888F9B8D8C8DF1
:1003E000981305C0E889F989808185FD26C0F62E1D
:1003F0000B8D10E00F5F1F4F0F731127E02E8C8DB8
:10040000E8120CC00FB607FCFACFE889F9898081A1
:1004100085FFF5CFCE010E94C301F1CF8B8DFE0188
:10042000E80FF11DE35AFF4FF0829FB7F8940B8F4E
:10043000EA89FB89808180620AC09FB7F894EE89BF
:10044000FF896083E889F989808183708064808373
:100450009FBF81E090E0DF91CF911F910F91FF90BE
:10046000EF900895CF93DF93EC01888D8823C9F036
:10047000EA89FB89808185FD05C0A889B9898C91AD
:1004800086FD0FC00FB607FCF5CF808185FFF2CF48
:10049000A889B9898C9185FFEDCFCE010E94C30157
:1004A000E7CFDF91CF91089580E090E0892B29F08C
:1004B0000E94B90181110C9400000895CF93DF933D
:1004C000EC0160E08E810E94A60061E08E810E94B6
:1004D000A60060E08E810E94A6008BE891E0019763
:1004E000F1F7DF91CF910895CF92DF92EF92FF92D3
:1004F0000F931F93CF93DF936C017C0187E0E80E8D
:10050000F11CC0E0D0E0062F10E0B8010C2E02C0B4
:10051000759567950A94E2F76170F70181917F0103
:100520000E94A6002196C430D10579F7C601DF915B
:10053000CF911F910F91FF90EF90DF90CF900C948F
:100540005E02CF92DF92EF92FF920F931F93CF93B1
:10055000DF93EC01F62E642F8C810E94A6008D8122
:100560008F3F19F060E00E94A6008F850F2D10E0EC
:1005700084FF25C06E0187E0C80ED11CE12CF12C50
:10058000B8010E2C02C0759567950A94E2F7617068
:10059000F60181916F010E94A600FFEFEF1AFF0A9A
:1005A00088E0E816F10461F7CE01DF91CF911F9149
:1005B0000F91FF90EF90DF90CF900C945E02B80106
:1005C00084E0759567958A95E1F7CE010E947402E3
:1005D0006F2DCE01DF91CF911F910F91FF90EF9082
:1005E000DF90CF900C94740240E0682F88EF91E088
:1005F0000C94A10281E00E94F4028BE39FE1019739
:10060000F1F70895CF93DF93823028F0909107029D
:1006100098609093070280930B0210920C0280E482
:1006200080930D0280E180930E0280E580930F029B
:100630008091FC010E9487008091FD018F3F11F0A5
:100640000E9487008091FE010E948700C8EFD1E0E0
:100650009E01285F31408091070284FD03C084E041
:1006600090E002C088E090E021962817390724F432
:100670008E810E948700ECCF8BE39DE00197F1F71C
:1006800060E08091FC010E94A60060E08091FE0184
:100690000E94A6008091FD018F3F19F060E00E944A
:1006A000A6008091070284FD20C063E088EF91E0FE
:1006B0000E947402CBE4D6E4CE010197F1F763E027
:1006C00088EF91E00E9474022197F1F763E088EFD0
:1006D00091E00E94740283E592E00197F1F762E0F5
:1006E00088EF91E00E94740215C080620E94F402BB
:1006F0008BE496E40197F1F78091070280620E94F3
:10070000F40283E592E00197F1F78091070280629D
:100710000E94F4028091070280620E94F40284E049
:10072000809308028CE00E94F4020E94FA0282E0A8
:100730008093090286E0DF91CF910C94F40241E0AE
:100740000E94A10281E090E00895089580E090E089
:100750000895009769F0FC0101900020E9F73197B6
:10076000AF01481B590BBC0188EF91E00C9452017A
:1007700080E090E008958F929F92AF92BF920F9386
:100780001F93CF93DF93CDB7DEB7A1970FB6F89441
:10079000DEBF0FBECDBF19A2423008F44AE08E0181
:1007A0000F5D1F4F842E912CA12CB12CA50194011B
:1007B0000E944507E62FB901CA0101501109EA302C
:1007C00014F4E05D01C0E95CD801EC93232B242BE9
:1007D000252B61F7C8010E94A903A1960FB6F894D2
:1007E000DEBF0FBECDBFDF91CF911F910F91BF90A4
:1007F000AF909F908F9008950E946D071F920F9267
:100800000FB60F9211242F933F938F939F93AF9323
:10081000BF938091530190915401A0915501B091E3
:1008200056013091520123E0230F2D3720F4019619
:10083000A11DB11D05C026E8230F0296A11DB11D03
:10084000209352018093530190935401A09355013A
:10085000B09356018091570190915801A091590190
:10086000B0915A010196A11DB11D8093570190933B
:100870005801A0935901B0935A01BF91AF919F9134
:100880008F913F912F910F900FBE0F901F90189551
:100890001F920F920FB60F9211242F933F934F93F5
:1008A0005F936F937F938F939F93AF93BF93EF93D8
:1008B000FF938BE591E00E94C301FF91EF91BF91FF
:1008C000AF919F918F917F916F915F914F913F91E8
:1008D0002F910F900FBE0F901F9018951F920F929F
:1008E0000FB60F9211242F938F939F93EF93FF9343
:1008F000E0916B01F0916C018081E0917101F091C8
:10090000720182FD12C09081809174018F5F8F739C
:1009100020917501821751F0E0917401F0E0E55AE1
:10092000FE4F958F8093740101C08081FF91EF91FC
:100930009F918F912F910F900FBE0F901F90189540
:10094000EBE5F1E01382128288EE93E0A0E0B0E0E4
:1009500084839583A683B78384E091E09183808329
:1009600085EC90E09587848784EC90E09787868774
:1009700080EC90E0918B808B81EC90E0938B828B6C
:1009800082EC90E0958B848B86EC90E0978B868B45
:10099000118E128E138E148EE8EFF1E01382128204
:1009A00086E191E0918380838CE084838FEF85835F
:1009B0008BE0868385E0878384E0808783E081877E
:1009C00082E082871386148615861686178681E054
:1009D0000C940203789484B5826084BD84B58160F0
:1009E00084BD85B5826085BD85B5816085BD8091FA
:1009F0006E00816080936E00109281008091810072
:100A00008260809381008091810081608093810069
:100A1000809180008160809380008091B10084602B
:100A20008093B1008091B00081608093B00080918C
:100A30007A00846080937A0080917A00826080934B
:100A40007A0080917A00816080937A0080917A00A8
:100A5000806880937A001092C100E0916B01F09160
:100A60006C0182E08083E0916701F091680110825F
:100A7000E0916901F0916A018FEC8083109273011B
:100A8000E0916F01F091700186E08083E0916D014B
:100A9000F0916E01808180618083E0916D01F09121
:100AA0006E01808188608083E0916D01F0916E011C
:100AB000808180688083E0916D01F0916E0180817A
:100AC0008F7D808382E00E94020382E00E94F40214
:100AD0008BE39FE10197F1F78EE191E00E94A9037A
:100AE000E0910B02E23010F4E15001C0E1E0F0E0EF
:100AF000E850FE4F848980680E94F4028DE291E004
:100B00000E94A90368EE73E080E090E00E94180163
:100B10000E94FA02C0E40E94FA028DE391E00E9472
:100B2000A903C0937C0080917A00806480937A004E
:100B300080917A0086FDFCCF809178002091790029
:100B400090E0922B90935101809350016C01092EFB
:100B5000000CEE08FF0897FF0FC041E06DE288EF40
:100B600091E00E94A10266277727CB016C197D09CD
:100B70008E099F094AE003C04AE0C701B6010E94FE
:100B8000BB036091500170915101072E000C880B3E
:100B9000990B0E944C062AE038E240EA5BE30E948F
:100BA000B0060E94140660934C0170934D0180932F
:100BB0004E0190934F01E0910B02E23010F4E150AE
:100BC00001C0E1E0F0E0E850FE4F848980680E94B7
:100BD000F40285E491E00E94A903C0904C01D090FA
:100BE0004D01E0904E01F0904F01F7FE0FC041E043
:100BF0006DE288EF91E00E94A10266277727CB0182
:100C00006C197D098E099F094AE003C04AE0C701BB
:100C1000B6010E94BB0364EF71E080E090E00E94A7
:100C200018010E94540277CF0E941B066894B111EC
:100C30000C94AA0608950E948F0688F09F5798F09A
:100C4000B92F9927B751B0F0E1F0660F771F881FD1
:100C5000991F1AF0BA95C9F714C0B13091F00E94EB
:100C6000A906B1E008950C94A906672F782F88276C
:100C7000B85F39F0B93FCCF3869577956795B39512
:100C8000D9F73EF490958095709561957F4F8F4F81
:100C90009F4F0895E89409C097FB3EF49095809586
:100CA000709561957F4F8F4F9F4F9923A9F0F92F32
:100CB00096E9BB279395F695879577956795B795B0
:100CC000F111F8CFFAF4BB0F11F460FF1BC06F5F96
:100CD0007F4F8F4F9F4F16C0882311F096E911C0A8
:100CE000772321F09EE8872F762F05C0662371F0C9
:100CF00096E8862F70E060E02AF09A95660F771FDD
:100D0000881FDAF7880F9695879597F9089557FD0C
:100D10009058440F551F59F05F3F71F04795880F69
:100D200097FB991F61F09F3F79F087950895121600
:100D300013061406551FF2CF4695F1DF08C01616AC
:100D400017061806991FF1CF86957105610508945D
:100D50000895E894BB2766277727CB0197F9089574
:100D60000E94C3060C9434070E94260738F00E94A4
:100D70002D0720F0952311F00C941D070C942307E8
:100D800011240C94AA060E94870670F3959FC1F364
:100D9000950F50E0551F629FF001729FBB27F00D29
:100DA000B11D639FAA27F00DB11DAA1F649F66277E
:100DB000B00DA11D661F829F2227B00DA11D621FCD
:100DC000739FB00DA11D621F839FA00D611D221F87
:100DD000749F3327A00D611D231F849F600D211D6B
:100DE000822F762F6A2F11249F5750409AF0F1F0EE
:100DF00088234AF0EE0FFF1FBB1F661F771F881F57
:100E000091505040A9F79E3F510580F00C941D076A
:100E10000C94AA065F3FE4F3983ED4F38695779549
:100E20006795B795F795E7959F5FC1F7FE2B880FFC
:100E3000911D9695879597F9089597F99F6780E892
:100E400070E060E008959FEF80EC089500240A941C
:100E50001616170618060906089500240A94121695
:100E60001306140605060895092E0394000C11F4C8
:100E7000882352F0BB0F40F4BF2B11F460FF04C075
:100E80006F5F7F4F8F4F9F4F0895A1E21A2EAA1BCD
:100E9000BB1BFD010DC0AA1FBB1FEE1FFF1FA2172A
:100EA000B307E407F50720F0A21BB30BE40BF50B27
:100EB000661F771F881F991F1A9469F760957095B0
:100EC000809590959B01AC01BD01CF010895EE0F77
:100ED000FF1F0590F491E02D099481E090E0F894D3
:080EE0000C947207F894FFCF97
:100EE80000000000E50152017C013202AD018B01D6
:100EF8009F01000000009F035201A603A503554E61
:100F08004120505255454241204C434400536F6C98
:100F18006F20756E612070727565626100494E5070
:0C0F280055543A200054656D703A2000CA
:00000001FF
